{"abi":[{"inputs":[],"name":"decrement","outputs":[],"stateMutability":"nonpayable","type":"function"},{"inputs":[],"name":"getCounter","outputs":[{"internalType":"uint256","name":"","type":"uint256"}],"stateMutability":"view","type":"function"},{"inputs":[],"name":"increment","outputs":[],"stateMutability":"nonpayable","type":"function"}],"bytecode":"60806040526000805534801561001457600080fd5b50610173806100246000396000f3fe608060405234801561001057600080fd5b50600436106100415760003560e01c80632baeceb7146100465780638ada066e14610050578063d09de08a14610065575b600080fd5b61004e61006d565b005b60005460405190815260200160405180910390f35b61004e6100e9565b60008054116100d05760405162461bcd60e51b815260206004820152602560248201527f436f756e7465722056616c75652063616e206e6f742062652064656372656d65604482015264373a32b21760d91b606482015260840160405180910390fd5b60016000808282546100e29190610111565b9091555050565b60016000808282546100e2919061012a565b634e487b7160e01b600052601160045260246000fd5b81810381811115610124576101246100fb565b92915050565b80820180821115610124576101246100fb56fea2646970667358221220070aa2d3f48b0b5f4c1efc0b427e09124c81fc09329623ef3d9627fa256e007964736f6c63430008140033","bytecodeSha1":"649c531da2b374e4dbd81e865bd47d9b738786a4","compiler":{"evm_version":"istanbul","optimizer":{"enabled":true,"runs":200},"version":"0.8.20+commit.a1b79de6"},"contractName":"SimpleCounter","language":"Solidity","natspec":{"kind":"dev","methods":{},"version":1},"opcodes":"PUSH1 0x80 PUSH1 0x40 MSTORE CALLVALUE DUP1 ISZERO PUSH2 0x10 JUMPI PUSH1 0x0 DUP1 REVERT JUMPDEST POP PUSH1 0x4 CALLDATASIZE LT PUSH2 0x41 JUMPI PUSH1 0x0 CALLDATALOAD PUSH1 0xE0 SHR DUP1 PUSH4 0x2BAECEB7 EQ PUSH2 0x46 JUMPI DUP1 PUSH4 0x8ADA066E EQ PUSH2 0x50 JUMPI DUP1 PUSH4 0xD09DE08A EQ PUSH2 0x65 JUMPI JUMPDEST PUSH1 0x0 DUP1 REVERT JUMPDEST PUSH2 0x4E PUSH2 0x6D JUMP JUMPDEST STOP JUMPDEST PUSH1 0x0 SLOAD PUSH1 0x40 MLOAD SWAP1 DUP2 MSTORE PUSH1 0x20 ADD PUSH1 0x40 MLOAD DUP1 SWAP2 SUB SWAP1 RETURN JUMPDEST PUSH2 0x4E PUSH2 0xE9 JUMP JUMPDEST PUSH1 0x0 DUP1 SLOAD GT PUSH2 0xD0 JUMPI PUSH1 0x40 MLOAD PUSH3 0x461BCD PUSH1 0xE5 SHL DUP2 MSTORE PUSH1 0x20 PUSH1 0x4 DUP3 ADD MSTORE PUSH1 0x25 PUSH1 0x24 DUP3 ADD MSTORE PUSH32 0x436F756E7465722056616C75652063616E206E6F742062652064656372656D65 PUSH1 0x44 DUP3 ADD MSTORE PUSH5 0x373A32B217 PUSH1 0xD9 SHL PUSH1 0x64 DUP3 ADD MSTORE PUSH1 0x84 ADD PUSH1 0x40 MLOAD DUP1 SWAP2 SUB SWAP1 REVERT JUMPDEST PUSH1 0x1 PUSH1 0x0 DUP1 DUP3 DUP3 SLOAD PUSH2 0xE2 SWAP2 SWAP1 PUSH2 0x111 JUMP JUMPDEST SWAP1 SWAP2 SSTORE POP POP JUMP JUMPDEST PUSH1 0x1 PUSH1 0x0 DUP1 DUP3 DUP3 SLOAD PUSH2 0xE2 SWAP2 SWAP1 PUSH2 0x12A JUMP JUMPDEST PUSH4 0x4E487B71 PUSH1 0xE0 SHL PUSH1 0x0 MSTORE PUSH1 0x11 PUSH1 0x4 MSTORE PUSH1 0x24 PUSH1 0x0 REVERT JUMPDEST DUP2 DUP2 SUB DUP2 DUP2 GT ISZERO PUSH2 0x124 JUMPI PUSH2 0x124 PUSH2 0xFB JUMP JUMPDEST SWAP3 SWAP2 POP POP JUMP JUMPDEST DUP1 DUP3 ADD DUP1 DUP3 GT ISZERO PUSH2 0x124 JUMPI PUSH2 0x124 PUSH2 0xFB JUMP INVALID LOG2 PUSH5 0x6970667358 0x22 SLT KECCAK256 SMOD EXP LOG2 0xD3 DELEGATECALL DUP12 SIGNEXTEND PUSH0 0x4C 0x1E 0xFC SIGNEXTEND TIMESTAMP PUSH31 0x9124C81FC09329623EF3D9627FA256E007964736F6C634300081400330000 ","sha1":"25d380199c09b3453123c9fb560f8aa8aa5a1858","source":"\n// SPDX-License-Identifier: MIT\npragma solidity ^0.8.0;\n\ncontract SimpleCounter {\n    uint private counter = 0;\n    function increment() public {\n        counter += 1;\n    }\n\n    function decrement() public {\n        require(counter > 0, \"Counter Value can not be decremented.\");\n        counter -= 1;\n    }\n\n    function getCounter() public view returns (uint)  {\n        return counter;\n    }\n}\n","sourcePath":"contracts/SimpleCounter.sol","type":"contract","deployment":{"address":"0x25734794a4B2Bd93227D0B3db30ffa468cEf8256","chainid":"dev","blockHeight":30}}