{
  "abi": [
    {
      "inputs": [],
      "name": "getCounter",
      "outputs": [
        {
          "internalType": "uint256",
          "name": "",
          "type": "uint256"
        }
      ],
      "stateMutability": "view",
      "type": "function"
    }
  ],
  "bytecode": "60806040526000600255348015601457600080fd5b5060788060226000396000f3fe6080604052348015600f57600080fd5b506004361060285760003560e01c80638ada066e14602d575b600080fd5b60025460405190815260200160405180910390f3fea2646970667358221220e16b67b3ddde1465ab55e1e6290eceabb2a183ba40734524de001e99a666208e64736f6c63430008140033",
  "bytecodeSha1": "29ebd2484c749438148b5251e19be37a5e16a60c",
  "compiler": {
    "evm_version": "istanbul",
    "optimizer": {
      "enabled": true,
      "runs": 200
    },
    "version": "0.8.20+commit.a1b79de6"
  },
  "contractName": "MyContract",
  "language": "Solidity",
  "natspec": {
    "kind": "dev",
    "methods": {},
    "version": 1
  },
  "opcodes": "PUSH1 0x80 PUSH1 0x40 MSTORE CALLVALUE DUP1 ISZERO PUSH1 0xF JUMPI PUSH1 0x0 DUP1 REVERT JUMPDEST POP PUSH1 0x4 CALLDATASIZE LT PUSH1 0x28 JUMPI PUSH1 0x0 CALLDATALOAD PUSH1 0xE0 SHR DUP1 PUSH4 0x8ADA066E EQ PUSH1 0x2D JUMPI JUMPDEST PUSH1 0x0 DUP1 REVERT JUMPDEST PUSH1 0x2 SLOAD PUSH1 0x40 MLOAD SWAP1 DUP2 MSTORE PUSH1 0x20 ADD PUSH1 0x40 MLOAD DUP1 SWAP2 SUB SWAP1 RETURN INVALID LOG2 PUSH5 0x6970667358 0x22 SLT KECCAK256 0xE1 PUSH12 0x67B3DDDE1465AB55E1E6290E 0xCE 0xAB 0xB2 LOG1 DUP4 0xBA BLOCKHASH PUSH20 0x4524DE001E99A666208E64736F6C634300081400 CALLER ",
  "sha1": "f1abbb58c2536005cad4952eddc25a0984cb6615",
  "source": "//SPDX-License-Identifier: MIT\npragma solidity ^0.8.0;\n\ncontract MyContract {\n    string private myStr;\n    string[] private strArray;\n    uint private counter = 0;\n\n    function getCounter () public view returns (uint) {\n        return counter;\n    }\n\n}",
  "sourcePath": "contracts/OtherContract.sol",
  "type": "contract"
}